:020000040800F2
:1000000000500020DD190008251800082D180008F0
:10001000351800083D1800084518000800000000C9
:100020000000000000000000000000004D18000863
:100030005918000800000000651800087118000831
:10004000251A0008251A0008251A0008251A000894
:10005000251A0008251A0008251A0008251A000884
:10006000251A0008251A0008251A0008251A000874
:10007000251A0008251A0008251A0008251A000864
:10008000251A0008251A0008251A0008251A000854
:10009000251A0008251A0008251A0008251A000844
:1000A000251A0008251A0008251A0008251A000834
:1000B000251A0008251A0008251A0008251A000824
:1000C000251A0008251A0008251A0008251A000814
:1000D000251A00087D180008251A0008251A0008AE
:1000E000251A0008251A0008251A0008000000003B
:1000F0000000000000000000000000000000000000
:0C01000000000000000000005FF808F1A3
:10010C0010B5054C237833B9044B13B10448AFF345
:10011C0000800123237010BD6C0000200000000043
:10012C00D863000808B5034B1BB103490348AFF370
:10013C00008008BD0000000070000020D86300089B
:10014C0080F0004002E000BF81F0004142001FBF80
:10015C005FEA410392EA030F7FEA226C7FEA236C89
:10016C006AD04FEA1262D2EB1363C1BFD21841407E
:10017C0048404140B8BF5B42192B88BF704710F014
:10018C00004F40F4000020F07F4018BF404211F0B7
:10019C00004F41F4000121F07F4118BF494292EA1F
:1001AC00030F3FD0A2F1010241FA03FC10EB0C004B
:1001BC00C3F1200301FA03F100F0004302D54942D8
:1001CC0060EB4000B0F5000F13D3B0F1807F06D385
:1001DC0040084FEA310102F10102FE2A51D2B1F17D
:1001EC00004F40EBC25008BF20F0010040EA030072
:1001FC007047490040EB0000013A28BFB0F5000FF2
:10020C00EDD2B0FA80FCACF1080CB2EB0C0200FAA7
:10021C000CF0AABF00EBC25052421843BCBFD040F6
:10022C001843704792F0000F81F4000106BF80F470
:10023C0000000132013BB5E74FEA41037FEA226C33
:10024C0018BF7FEA236C21D092EA030F04D092F0FE
:10025C00000F08BF0846704790EA010F1CBF002032
:10026C00704712F07F4F04D1400028BF40F000408F
:10027C00704712F100723CBF00F50000704700F0AF
:10028C00004343F0FE4040F4000070477FEA2262D6
:10029C0016BF08467FEA23630146420206BF5FEAA7
:1002AC00412390EA010F40F4800070474FF00003A7
:1002BC0004E000BF10F0004348BF40425FEA000C6E
:1002CC0008BF704743F0964301464FF000001CE016
:1002DC0050EA010208BF70474FF000030AE000BF6C
:1002EC0050EA010208BF704711F0004302D54042AA
:1002FC0061EB41015FEA010C02BF8446014600201C
:10030C0043F0B64308BFA3F18053A3F50003BCFA36
:10031C008CF2083AA3EBC25310DB01FA02FC6344E3
:10032C0000FA02FCC2F12002BCF1004F20FA02F2EA
:10033C0043EB020008BF20F00100704702F12002DD
:10034C0001FA02FCC2F1200250EA4C0021FA02F23E
:10035C0043EB020008BF20EADC7070474FF0FF0C43
:10036C001CEAD0521EBF1CEAD15392EA0C0F93EA3E
:10037C000C0F6FD01A4480EA010C400218BF5FEAE0
:10038C0041211ED04FF0006343EA501043EA511153
:10039C00A0FB01310CF00040B1F5000F3EBF49004D
:1003AC0041EAD3715B0040EA010062F17F02FD2A51
:1003BC001DD8B3F1004F40EBC25008BF20F0010034
:1003CC00704790F0000F0CF0004C08BF49024CEA4B
:1003DC00502040EA51207F3AC2BFD2F1FF0340EADD
:1003EC00C250704740F400004FF00003013A5DDC4E
:1003FC0012F1190FDCBF00F000407047C2F100028F
:10040C00410021FA02F1C2F1200200FA02FC5FEA7B
:10041C00310040F1000053EA4C0308BF20EADC70C5
:10042C00704792F0000F00F0004C02BF400010F437
:10043C00000F013AF9D040EA0C0093F0000F01F0E4
:10044C00004C02BF490011F4000F013BF9D041EA06
:10045C000C018FE70CEAD15392EA0C0F18BF93EA08
:10046C000C0F0AD030F0004C18BF31F0004CD8D132
:10047C0080EA010000F00040704790F0000F17BFB9
:10048C0090F0004F084691F0000F91F0004F14D0FF
:10049C0092EA0C0F01D142020FD193EA0C0F03D157
:1004AC004B0218BF084608D180EA010000F000405A
:1004BC0040F0FE4040F40000704740F0FE4040F435
:1004CC00400070474FF0FF0C1CEAD0521EBF1CEAD4
:1004DC00D15392EA0C0F93EA0C0F69D0A2EB0302F2
:1004EC0080EA010C49024FEA402037D04FF080538C
:1004FC0043EA111143EA10130CF000408B4238BF51
:10050C005B0042F17D024FF4000C8B4224BF5B1A5E
:10051C0040EA0C00B3EB510F24BFA3EB510340EAAC
:10052C005C00B3EB910F24BFA3EB910340EA9C005A
:10053C00B3EBD10F24BFA3EBD10340EADC001B01CA
:10054C0018BF5FEA1C1CE0D1FD2A3FF650AF8B426E
:10055C0040EBC25008BF20F0010070470CF0004C7B
:10056C004CEA50207F32C2BFD2F1FF0340EAC250A6
:10057C00704740F400004FF00003013A37E792F067
:10058C00000F00F0004C02BF400010F4000F013AC5
:10059C00F9D040EA0C0093F0000F01F0004C02BFC0
:1005AC00490011F4000F013BF9D041EA0C0195E729
:1005BC000CEAD15392EA0C0F08D142027FF47DAFC2
:1005CC0093EA0C0F7FF470AF084676E793EA0C0FB2
:1005DC0004D14B023FF44CAF08466EE730F0004CB0
:1005EC0018BF31F0004CCAD130F000427FF45CAF40
:1005FC0031F000437FF43CAF5FE700BF4FF0FF3CAE
:10060C0006E000BF4FF0010C02E000BF4FF0010C00
:10061C004DF804CD4FEA40024FEA41037FEA226CC9
:10062C0018BF7FEA236C11D001B052EA530C18BFEB
:10063C0090EA010F58BFB2EB030088BFC81738BF50
:10064C006FEAE17018BF40F0010070477FEA226C3E
:10065C0002D15FEA402C05D17FEA236CE4D15FEA3A
:10066C00412CE1D05DF8040B704700BF844608466E
:10067C006146FFE70FB5FFF7C9FF002848BF10F12F
:10068C00000F0FBD4DF808EDFFF7F4FF0CBF012074
:10069C0000205DF808FB00BF4DF808EDFFF7EAFFFE
:1006AC0034BF012000205DF808FB00BF4DF808EDB9
:1006BC00FFF7E0FF94BF012000205DF808FB00BFAE
:1006CC004DF808EDFFF7D2FF94BF012000205DF834
:1006DC0008FB00BF4DF808EDFFF7C8FF34BF012041
:1006EC0000205DF808FB00BF4FEA4002B2F1FE4F5C
:1006FC000FD34FF09E03B3EB12620DD94FEA0023D8
:10070C0043F0004310F0004F23FA02F018BF4042B0
:10071C0070474FF00000704712F1610F01D1420297
:10072C0005D110F0004008BF6FF0004070474FF04B
:10073C000000704780B483B000AF78607B68104ACB
:10074C001A607B680F4A5A607B680F4A9A607B6814
:10075C004FF000021A617B684FF000021A627B684E
:10076C001A6A7B68DA617B68DA697B685A627B6833
:10077C005A6A7B689A6100BF0C37BD4680BC7047D3
:10078C000AD7A33B6F12033B8FC2F53C90B58BB0DD
:10079C0000AFF860B9607A603B60FB681B69194672
:1007AC007868FFF7D1FC03461A46FB685A61FB6870
:1007BC00DC68FB685B6939681846FFF7CFFD0346B8
:1007CC0019462046FFF7C2FC03461A46FB68DA605E
:1007DC00FB689C69FB685B6A39681846FFF7BEFDCD
:1007EC0003461A46FB68DB6919461046FFF7ACFC5A
:1007FC0003461A46FB681B6A19461046FFF7A4FC11
:10080C0003461A46FB681B6819461046FFF79EFC08
:10081C00034639681846FFF7A1FD034619462046E2
:10082C00FFF794FC03461A46FB689A61FB68DC6987
:10083C00FB685B6A39681846FFF790FD034619465A
:10084C002046FFF781FC03461A46FB68DA61FB6819
:10085C001C6AFB685B6A39681846FFF77FFD034624
:10086C0019462046FFF770FC03461A46FB681A62CD
:10087C00FB685C6AFB685B6839681846FFF76EFDBD
:10088C00034619462046FFF761FC03461A46FB68EF
:10089C005A62FB689A69FB689B6819461046FFF719
:1008AC0055FC03467B62FB689B69796A1846FFF727
:1008BC0009FE03463B62FB681B6A796A1846FFF720
:1008CC0001FE0346FB61FB68DB681946B868FFF75D
:1008DC003BFC0346BB61FB68DC68B969386AFFF70F
:1008EC003DFD034619462046FFF730FC03461A46E9
:1008FC00FB68DA60FB681C69B969F869FFF72EFDC3
:10090C00034619462046FFF721FC03461A46FB68AE
:10091C001A61FB689B697B61FB68DB693B61FB6867
:10092C009C697969386AFFF719FD03461946204618
:10093C00FFF70AFC03461A46FB689A61FB68DC6900
:10094C003969386AFFF70AFD034619462046FFF756
:10095C00FBFB03461A46FB68DA61FB681C6A796983
:10096C00F869FFF7FBFC034619462046FFF7ECFB42
:10097C0003461A46FB681A62FB685C6A3969F869B7
:10098C00FFF7ECFC034619462046FFF7DDFB034658
:10099C001A46FB685A62FB68DB6818462C37BD4662
:1009AC0090BD000080B400AF064B5A68064B1B6824
:1009BC000649A1FB03139B0CB2FBF3F31846BD468F
:1009CC0080BC7047001000E00400002083DE1B4355
:1009DC0080B582B000AF78607B681B68094A93428F
:1009EC000CD1094B1B78DAB2084B1A70084B012258
:1009FC001A7001220449074803F09AFE00BF083719
:100A0C00BD4680BD0038014094010020000000204C
:100A1C00950100202401002080B594B000AF00F0B7
:100A2C00FDFF00F05BFA00F077FB00F09DFA00F0A0
:100A3C00C9FA00F047FB00216F4803F0EFF80821DA
:100A4C006D4803F0EBF86D4BDB686C4A43F0807338
:100A5C00D3606B4B00225A60694B1B68684A43F0A9
:100A6C00010313606748FFF765FE00F0B3FBFFF767
:100A7C0099FFF86401F02AF878634FF00003BB602B
:100A8C004FF000037B604FF00003BB6400237B64DA
:100A9C00FFF788FF38633A6BFB6CD31A1846FFF7E5
:100AAC0005FC034658491846FFF758FC03463B64BF
:100ABC005649386CFFF7F0FD0346002B40F0EE81F1
:100ACC005349386CFFF706FE0346002B01D0504B00
:100ADC003B643B6BFB644F4B1B6801334D4A13600B
:100AEC0000F0F4FF02464C4B1B68D31AB3F57A7F27
:100AFC000DD3484B1B681946484804F013FC454B72
:100B0C0000221A6000F0E2FF0346434A1360391DCD
:100B1C0007F108033A6C184600F064FC404B1B7854
:100B2C00002B1BD100F0D2FF02467B6BD31A41F293
:100B3C008732934212D801224FF48051394801F088
:100B4C0037FB00F0BBFCBB681946B86CFFF7FEFA2C
:100B5C000346BB647B6C01337B64A0E1304B1B7898
:100B6C00002B1CD1786CFFF7A1FB03461946B86C1F
:100B7C00FFF7A8FC03461A462B4B1A60284B0122A0
:100B8C001A702A4B4FF000021A60294B1B68294A35
:100B9C00136000224FF48051224801F009FBBB681E
:100BAC00214A126811461846FFF7CEFA0346FB623B
:100BBC00FB6A23F0004320491846FFF78BFD0346E0
:100BCC00002B43D000F07AFC1C4B4FF000021A6053
:100BDC001A4B1B681A4A1360194B1B68134A136093
:100BEC00184B53221A70124B1B68124A1360164B87
:100BFC0053221A7053E100BFDC000020F0ED00E03E
:100C0C00001000E06C010020BD3786350AD7A33BED
:100C1C006F12833BB8010020BC010020F063000878
:100C2C00B4010020000C0140B0010020980100200C
:100C3C00A4010020A801002000003442A0010020E3
:100C4C009C01002001000020020000209449F86A59
:100C5C00FFF784FB0346BB627B6883F0004390493B
:100C6C001846FFF77BFB03467B628E4B1B68B96A09
:100C7C001846FFF769FA03463B628B49386AFFF75F
:100C8C006DFB0346FB618949786AFFF767FB0346F6
:100C9C00BB61396C386AFFF761FB03461A46844B1B
:100CAC001B6819461046FFF751FA03461A46804B4B
:100CBC001A607F4B1B687F491846FFF70BFD0346F4
:100CCC00002B02D07A4B7B4A1A60794B1B687A490D
:100CDC001846FFF7E1FC0346002B02D0744B764A12
:100CEC001A60734B1B684FF000011846FFF736FB78
:100CFC0003467B61B969F869FFF728FA0346194680
:100D0C007869FFF723FA03463B616C493869FFF7B2
:100D1C0025FB03461846FFF7E7FC0346FB81B7F9B2
:100D2C000E30002B01DB012301E04FF0FF33BB81C0
:100D3C00B7F90E30002BB8BF5B429BB2FB87B7F9FB
:100D4C003E30952B1ADCFB6A23F000434FF07C51AC
:100D5C001846FFF7A1FC0346002B0DD07B6823F04F
:100D6C0000434FF080411846FFF796FC0346002BDA
:100D7C0002D00023FB8701E09623FB87BB89FA8F07
:100D8C0002FB03F39BB2BB87B7F93C3040F68C22D5
:100D9C00934202DD40F68C23BB87B7F93C30484ABE
:100DAC00934202DA4FF27453BB87BB8F7B87BB8FA6
:100DBC003B87444B1B78DBB2532B1BD0424B1B683D
:100DCC003A6B9A4216D23F4B1B78DBB24C2B08D1B4
:100DDC00BB8F503B9BB27B87BB8F50339BB23B8707
:100DEC000EE0BB8F50339BB27B87BB8F503B9BB2CB
:100DFC003B8705E0334B53221A70344B53221A7045
:100E0C00B7F93A301846FFF755FA034630491846F9
:100E1C00FFF7A4FA03461846FFF766FC03467B87E8
:100E2C00B7F938301846FFF745FA03461846FFF76E
:100E3C005BFC03463B87B7F93A301846FFF73AFAA2
:100E4C0003462449184605F0E5F80346224918469E
:100E5C0005F0F5F803461846FFF746FC03467B877A
:100E6C00B7F938301846FFF725FA034619491846E2
:100E7C0005F0D0F803461849184605F0E0F803468B
:100E8C001846FFF731FC03463B87B7F93820B7F912
:100E9C003A301146184600F027FBF9E500BFF7E59C
:100EAC0035FA8E3CA8010020000018420000A0403A
:100EBC009801002000002040000020C000007A446F
:100ECC0074F5FFFF01000020AC010020020000209F
:100EDC006666863F00C028C500C0284580B590B026
:100EEC0000AF07F1180328220021184604F06FFA0E
:100EFC003B1D00221A605A609A60DA601A61012365
:100F0C00BB614FF48033FB6100233B620123BB6266
:100F1C0002237B634FF48033BB634FF4E013FB631A
:100F2C0007F11803184602F0C1F90346002B01D053
:100F3C0000F05CFB0F237B600223BB600023FB6093
:100F4C004FF480633B6100237B613B1D02211846FB
:100F5C0002F02EFC0346002B01D000F047FB00BF33
:100F6C004037BD4680BD000080B500AF124B134A20
:100F7C001A60114B124A5A600F4B00229A600E4BAA
:100F8C000022DA600C4B4FF480421A610A4B0022AB
:100F9C005A61094B00229A61074B0022DA61064B19
:100FAC0000221A62044801F01BF90346002B01D001
:100FBC0000F01CFB00BF80BD8800002000540040E6
:100FCC00801A060080B58EB000AF07F1280300220E
:100FDC001A605A609A60DA6007F1200300221A60E6
:100FEC005A603B1D00221A605A609A60DA601A61DE
:100FFC005A619A61324B4FF080421A60304B00229A
:10100C005A602F4B00229A602D4B4FF46162DA60CC
:10101C002B4B00221A612A4B00229A61284802F0BD
:10102C0055FD0346002B01D000F0E0FA4FF480533D
:10103C00BB6207F128031946214802F053FF03460F
:10104C00002B01D000F0D2FA1D4802F08EFD0346B1
:10105C00002B01D000F0CAFA00233B6200237B6214
:10106C0007F120031946164803F0B4FA0346002B87
:10107C0001D000F0BBFA60237B600023BB6000232F
:10108C00FB6000237B613B1D002219460C4802F0DB
:10109C0067FE0346002B01D000F0A8FA3B1D082286
:1010AC001946074802F05CFE0346002B01D000F005
:1010BC009DFA034800F02CFB00BF3837BD4680BDBD
:1010CC00DC00002080B500AF114B124A1A60104BA7
:1010DC004FF4E1325A600E4B00229A600C4B002206
:1010EC00DA600B4B00221A61094B0C225A61084B37
:1010FC0000229A61064B0022DA61054803F0C8FA17
:10110C000346002B01D000F071FA00BF80BD00BF78
:10111C00240100200038014080B588B000AF07F1F1
:10112C00100300221A605A609A60DA60274B9B69A0
:10113C00264A43F010039361244B9B6903F0100380
:10114C00FB60FB68214B9B69204A43F020039361B1
:10115C001E4B9B6903F02003BB60BB681B4B9B6958
:10116C001A4A43F004039361184B9B6903F0040380
:10117C007B607B68154B9B69144A43F008039361B1
:10118C00124B9B6903F008033B603B68002240F65E
:10119C0003410F4801F00CF801224FF480510C4828
:1011AC0001F006F841F603433B6101237B61002308
:1011BC00BB610223FB6107F110031946044800F0E0
:1011CC0073FE00BF2037BD4680BD00BF001002403B
:1011DC00000C014090B593B004AF0023FB764FF0A8
:1011EC00FF3302930123019307F11B0300930123A7
:1011FC006B22D021754801F037F9642000F070FCA7
:10120C000723BB764FF0FF3302930123019307F1C1
:10121C001A03009301231922D0216C4801F024F900
:10122C0000237B764FF0FF3302930123019307F1E8
:10123C001903009301231A22D021644801F014F9F8
:10124C0000233B764FF0FF3302930123019307F108
:10125C001803009301231B22D0215C4801F004F9F0
:10126C000023FB754FF0FF3302930123019307F129
:10127C001703009301231C22D021544801F0F4F8E9
:10128C0000237B6300233B634EE04FF0FF3302935C
:10129C000623019307F11003009301233B22D02175
:1012AC004A4801F0DBF90346002B39D13B7C1BB2D9
:1012BC001B021AB27B7C1BB21343BB843B7D1BB25B
:1012CC001B021AB27B7D1BB213437B84B7F924300B
:1012DC005B421846FEF7EEFF0446B7F9223018467B
:1012EC00FEF7E8FF03461946204604F091FE03463C
:1012FC0037491846FFF732F80346FB61786BFEF767
:10130C00D9FF0346F9691846FEF720FF0346184635
:10131C00FFF7EAF903467B63022000F0E1FB00E0F3
:10132C0000BF3B6B01333B633B6BC72BADDD786B75
:10133C00FEF7C0FF034627491846FFF7C3F80346DC
:10134C001A46254BDA600023FB620023BB6224E0C3
:10135C004FF0FF3302930E2301933B46009301237E
:10136C003B22D021194801F079F90346002B10D10A
:10137C003B7A1BB21B021AB27B7A1BB21343FB845F
:10138C00B7F92630FA6A1344FB62012000F0A8FB7F
:10139C0000E000BFBB6A0133BB62BB6AB3F57A7F66
:1013AC00D6DBF86AFEF786FF03460C491846FFF7B2
:1013BC0089F803460A491846FFF784F803461A468B
:1013CC00054B1A6100BF3C37BD4690BD880000201C
:1013DC00E62E6542000048436C01002000007A4470
:1013EC000000034390B591B004AFF860B9607A6027
:1013FC004FF0FF3302930E23019307F11403009374
:10140C0001233B22D021294801F028F90346002B67
:10141C0048D13B7D1BB21B021AB27B7D1BB213431E
:10142C00FB853B7E1BB21B021AB27B7E1BB21343A5
:10143C00BB853B7F1BB21B021AB27B7F1BB21343D3
:10144C007B85B7F92A301846FEF734FF0346184956
:10145C001846FFF737F803461A46BB681A60B7F907
:10146C002E305B421846FEF725FF0446B7F92C30A8
:10147C001846FEF71FFF03461946204604F0C8FD28
:10148C0003460C491846FEF769FF03467B62BB68AE
:10149C001A687B68796A0848FFF778F90246FB6896
:1014AC001A6000E000BF3437BD4690BD88000020B4
:1014BC0000000343E62E65426C01002080B500AFAE
:1014CC00074B1B6800225A63054B1B680022DA632A
:1014DC00002240F60341034800F06AFE00BF80BDC5
:1014EC00DC000020000C014080B584B000AF034646
:1014FC000A46FB801346BB80B7F90630002B01DB94
:10150C00012301E04FF0FF33FB81B7F90E30002BC4
:10151C0003DAFB885B429BB2FB80B7F90E30002BE1
:10152C00CCBF01230023DBB21A4601212D4800F069
:10153C003FFEB7F90E30002BD4BF01230023DBB2E2
:10154C001A460221274800F033FEB7F90630002B6B
:10155C0004D100220321234800F02AFE224B1B68F1
:10156C00B7F906205A63B7F90430002B01DB0123CD
:10157C0001E04FF0FF33BB81B7F90C30002B03DADD
:10158C00BB885B429BB2BB80B7F90C30002BD4BF3D
:10159C0001230023DBB21A464FF48061114800F09E
:1015AC0007FEB7F90C30002BCCBF01230023DBB2B4
:1015BC001A464FF400610B4800F0FAFDB7F90430FD
:1015CC00002B05D100224FF44061064800F0F0FDDD
:1015DC00054B1B68B7F90420DA6300BF1037BD4612
:1015EC0080BD00BF000C0140DC00002080B400AFC7
:1015FC0072B600BF00BFFDE780B485B000AF154BDD
:10160C009B69144A43F001039361124B9B6903F0ED
:10161C000103BB60BB680F4BDB690E4A43F0805380
:10162C00D3610C4BDB6903F080537B607B680A4B06
:10163C005B68FB60FB6823F0E063FB60FB6843F0D6
:10164C000073FB60044AFB68536000BF1437BD464F
:10165C0080BC7047001002400000014080B588B08B
:10166C0000AF786007F1100300221A605A609A608C
:10167C00DA607B681B68154A934223D1144B9B6933
:10168C00134A43F008039361114B9B6903F0080361
:10169C00FB60FB68C0233B6112237B610323FB616E
:1016AC0007F1100319460B4800F0FEFB084BDB69F1
:1016BC00074A43F40013D361054BDB6903F40013B1
:1016CC00BB60BB6800BF2037BD4680BD00540040E6
:1016DC0000100240000C014080B485B000AF78606F
:1016EC007B681B68B3F1804F0BD1084BDB69074A51
:1016FC0043F00103D361054BDB6903F00103FB608D
:10170C00FB6800BF1437BD4680BC70470010024018
:10171C0080B588B000AF786007F1100300221A6022
:10172C005A609A60DA607B681B68B3F1804F17D1FE
:10173C000D4B9B690C4A43F0040393610A4B9B6964
:10174C0003F00403FB60FB6805233B6102237B6110
:10175C000223FB6107F110031946044800F0A4FBB7
:10176C0000BF2037BD4680BD00100240000801407C
:10177C0080B588B000AF786007F1100300221A60C2
:10178C005A609A60DA607B681B68204A934239D1B0
:10179C001F4B9B691E4A43F4804393611C4B9B690E
:1017AC0003F48043FB60FB68194B9B69184A43F0B8
:1017BC0004039361164B9B6903F00403BB60BB6885
:1017CC004FF400733B6102237B610323FB6107F140
:1017DC00100319460F4800F067FB4FF480633B6120
:1017EC0000237B610023BB6107F1100319460948F4
:1017FC0000F05AFB00220021252000F06CFA252075
:10180C0000F085FA00BF2037BD4680BD003801408E
:10181C00001002400008014080B400AF00BFFDE79B
:10182C0080B400AF00BFFDE780B400AF00BFFDE7A0
:10183C0080B400AF00BFFDE780B400AF00BFFDE790
:10184C0080B400AF00BFBD4680BC704780B400AF11
:10185C0000BFBD4680BC704780B400AF00BFBD4622
:10186C0080BC704780B500AF00F01EF900BF80BD92
:10187C0080B500AF024802F081FF00BF80BD00BF01
:10188C002401002080B586B000AFF860B9607A60A2
:10189C0000237B610AE0AFF300800146BB685A1C51
:1018AC00BA60CAB21A707B6901337B617A697B6852
:1018BC009A42F0DB7B6818461837BD4680BD80B570
:1018CC0086B000AFF860B9607A6000237B6109E0F4
:1018DC00BB685A1CBA601B781846AFF300807B6952
:1018EC0001337B617A697B689A42F1DB7B6818462D
:1018FC001837BD4680BD80B483B000AF78604FF020
:10190C00FF3318460C37BD4680BC704780B483B09B
:10191C0000AF786039603B684FF400525A60002386
:10192C0018460C37BD4680BC704780B483B000AFFE
:10193C007860012318460C37BD4680BC704780B4D4
:10194C0085B000AFF860B9607A6000231846143790
:10195C00BD4680BC7047000080B586B000AF786093
:10196C00144A154BD31A7B617B693B61134B1B6883
:10197C00002B02D1114B124A1A60104B1A687B686B
:10198C0013443A699A4207D203F070FD03460C22C5
:10199C001A604FF0FF3309E0084B1B68FB60074BE4
:1019AC001A687B681344054A1360FB68184618379D
:1019BC00BD4680BD0050002000040000C001002086
:1019CC001803002080B400AF00BFBD4680BC704738
:1019DC00FFF7F8FF0B480C490C4A002302E0D458DF
:1019EC00C4500433C4188C42F9D3094A094C00235F
:1019FC0001E013600432A242FBD303F03DFDFFF77C
:101A0C000BF87047000000206C000020A064000858
:101A1C006C00002014030020FEE7000080B500AF2E
:101A2C00084B1B68074A43F010031360032000F0B7
:101A3C0047F90F2000F008F8FFF7DEFD00231846E9
:101A4C0080BD00BF0020024080B582B000AF78603E
:101A5C00124B1A68124B1B7819464FF47A73B3FB6E
:101A6C00F1F3B2FBF3F3184600F05FF90346002BD9
:101A7C0001D001230EE07B680F2B0AD80022796875
:101A8C004FF0FF3000F027F9064A7B681360002303
:101A9C0000E0012318460837BD4680BD0400002035
:101AAC000C0000200800002080B400AF054B1B7810
:101ABC001A46054B1B681344034A136000BFBD460E
:101ACC0080BC70470C000020C401002080B400AF23
:101ADC00024B1B681846BD4680BC7047C4010020F1
:101AEC0080B584B000AF7860FFF7F0FFB8607B681A
:101AFC00FB60FB68B3F1FF3F05D00A4B1B781A461D
:101B0C00FB681344FB6000BFFFF7E0FF0246BB68B5
:101B1C00D31AFA689A42F7D800BF00BF1037BD46F7
:101B2C0080BD00BF0C00002080B485B000AF786091
:101B3C007B6803F00703FB600C4BDB68BB60BA6887
:101B4C004FF6FF031340BB60FB681A02BB681343DC
:101B5C0043F0BF6343F40033BB60044ABB68D360FB
:101B6C0000BF1437BD4680BC704700BF00ED00E0DD
:101B7C0080B400AF044BDB681B0A03F00703184664
:101B8C00BD4680BC704700BF00ED00E080B483B060
:101B9C0000AF0346FB7197F90730002B0BDBFB7989
:101BAC0003F01F02064997F907305B09012000FA80
:101BBC0002F241F8232000BF0C37BD4680BC7047B1
:101BCC0000E100E080B483B000AF03463960FB71E4
:101BDC0097F90730002B0ADB3B68DAB20C4997F90E
:101BEC0007301201D2B20B4483F800230AE03B68A1
:101BFC00DAB20849FB7903F00F03043B1201D2B2AD
:101C0C000B441A7600BF0C37BD4680BC704700BF32
:101C1C0000E100E000ED00E080B489B000AFF860B6
:101C2C00B9607A60FB6803F00703FB61FB69C3F1E1
:101C3C000703042B28BF0423BB61FB690433062B69
:101C4C0002D9FB69033B00E000237B614FF0FF32BC
:101C5C00BB6902FA03F3DA43BB681A407B699A400A
:101C6C004FF0FF317B6901FA03F3D9437B680B40DA
:101C7C00134318462437BD4680BC704780B582B0EC
:101C8C0000AF78607B68013BB3F1807F01D3012307
:101C9C000FE00A4A7B68013B53600F214FF0FF3085
:101CAC00FFF790FF054B00229A60044B07221A6045
:101CBC00002318460837BD4680BD00BF10E000E089
:101CCC0080B582B000AF78607868FFF72DFF00BF59
:101CDC000837BD4680BD80B586B000AF0346B960FD
:101CEC007A60FB7300237B61FFF742FF78617A68AF
:101CFC00B9687869FFF790FF024697F90F301146E3
:101D0C001846FFF75FFF00BF1837BD4680BD80B592
:101D1C0082B000AF0346FB7197F907301846FFF706
:101D2C0035FF00BF0837BD4680BD80B582B000AF1F
:101D3C0078607868FFF7A2FF034618460837BD465F
:101D4C0080BD80B485B000AF78600023FB737B68E6
:101D5C0093F82130DBB2022B08D07B6804229A6303
:101D6C007B68002283F82020012320E07B681B681D
:101D7C001A687B681B6822F00E021A607B681B686D
:101D8C001A687B681B6822F001021A607B681A6C67
:101D9C007B68DB6B012101FA02F25A607B6801223D
:101DAC0083F821207B68002283F82020FB7B1846D7
:101DBC001437BD4680BC704780B584B000AF7860E6
:101DCC000023FB737B6893F82130DBB2022B05D028
:101DDC007B6804229A630123FB7351E07B681B68C8
:101DEC001A687B681B6822F00E021A607B681B68FD
:101DFC001A687B681B6822F001021A607B681B68FA
:101E0C00224A934229D07B681B68214A934222D0F4
:101E1C007B681B681F4A93421AD07B681B681E4A5A
:101E2C00934212D07B681B681C4A93420AD07B6891
:101E3C001B681B4A934202D14FF480130EE04FF003
:101E4C0080730BE04FF4803308E04FF4805305E0CF
:101E5C004FF4807302E0102300E00123114A536019
:101E6C007B68012283F821207B68002283F82020E4
:101E7C007B685B6B002B03D07B685B6B7868984747
:101E8C00FB7B18461037BD4680BD00BF08000240E2
:101E9C001C00024030000240440002405800024046
:101EAC006C0002400000024080B48BB000AF786040
:101EBC00396000237B6200233B6269E101227B6A6B
:101ECC0002FA03F3FB613B681B68FA691340BB61C0
:101EDC00BA69FB699A4240F058813B685B689A4A40
:101EEC0093425ED0984A934275D8984A934258D000
:101EFC00964A93426FD8964A934252D0944A934250
:101F0C0069D8944A93424CD0924A934263D8924AED
:101F1C00934246D0904A93425DD8122B2AD8122B6A
:101F2C0059D801A252F823F0AF1F0008891F0008EE
:101F3C009B1F0008DD1F0008E31F0008E31F0008BB
:101F4C00E31F0008E31F0008E31F0008E31F00085D
:101F5C00E31F0008E31F0008E31F0008E31F00084D
:101F6C00E31F0008E31F0008E31F0008911F00088F
:101F7C00A51F0008794A934213D02CE03B68DB681C
:101F8C003B6229E03B68DB6804333B6224E03B683E
:101F9C00DB6808333B621FE03B68DB680C333B6259
:101FAC001AE03B689B68002B02D104233B6213E0D0
:101FBC003B689B68012B05D108233B627B68FA695F
:101FCC001A6109E008233B627B68FA695A6103E0F5
:101FDC0000233B6200E000BFBB69FF2B01D87B688C
:101FEC0001E07B6804337B61BB69FF2B02D87B6A01
:101FFC009B0002E07B6A083B9B003B617B691A6893
:10200C000F213B6901FA03F3DB431A40396A3B6940
:10201C0001FA03F31A437B691A603B685B6803F0AF
:10202C008053002B00F0B1804D4B9B694C4A43F020
:10203C00010393614A4B9B6903F00103BB60BB68CE
:10204C00484A7B6A9B08023352F82330FB607B6A58
:10205C0003F003039B000F2202FA03F3DB43FA683D
:10206C001340FB607B68404A934213D07B683F4A25
:10207C0093420DD07B683E4A934207D07B683D4A21
:10208C00934201D1032306E0042304E0022302E07F
:10209C00012300E000237A6A02F0030292009340CD
:1020AC00FA681343FB602F497B6A9B080233FA687A
:1020BC0041F823203B685B6803F48013002B06D0A7
:1020CC002D4B9A682C49BB6913438B6006E02A4B55
:1020DC009A68BB69DB43284913408B603B685B689B
:1020EC0003F40013002B06D0234BDA682249BB699A
:1020FC001343CB6006E0204BDA68BB69DB431E4917
:10210C001340CB603B685B6803F40033002B06D0B4
:10211C00194B5A681849BB6913434B6006E0164BC0
:10212C005A68BB69DB43144913404B603B685B68DE
:10213C0003F48033002B21D00F4B1A680E49BB6976
:10214C0013430B6021E000BF00003210000031107F
:10215C0000002210000021100000121000001110CD
:10216C00001002400000014000080140000C01403A
:10217C000010014000140140000401400B4B1A6890
:10218C00BB69DB43094913400B607B6A01337B62FB
:10219C003B681A687B6A22FA03F3002B7FF48EAE3D
:1021AC0000BF00BF2C37BD4680BC70470004014007
:1021BC0080B483B000AF78600B467B8013467B7095
:1021CC007B78002B03D07A887B681A6103E07B88CC
:1021DC001A047B681A6100BF0C37BD4680BC70477F
:1021EC0080B584B000AF78607B68002B01D10123EF
:1021FC002BE17B6893F83D30DBB2002B06D17B687A
:10220C00002283F83C207868FFF728FA7B682422A8
:10221C0083F83D207B681B681A687B681B6822F07A
:10222C0001021A607B681B681A687B681B6842F4A1
:10223C0000421A607B681B681A687B681B6822F472
:10224C0000421A6001F0FCFBF8607B685B68814A15
:10225C00934207D8FB68804A934294BF0123002322
:10226C00DBB206E0FB687D4A934294BF0123002356
:10227C00DBB2002B01D00123E7E0FB68784AA2FB1C
:10228C0003239B0CBB607B681B685B6823F03F01DE
:10229C007B681B68BA680A435A607B681B681B6AB8
:1022AC0023F03F017B685B686A4A934202D8BB68A3
:1022BC00013309E0BB684FF4967202FB03F3694AE1
:1022CC00A2FB03239B0901337A6812680B43136248
:1022DC007B681B68DB6923F44F4222F0FF027B68AA
:1022EC005B685C498B4219D8FB68591E7B685B683C
:1022FC005B00B1FBF3F3591C40F6FC730B40002B55
:10230C000AD0FB68591E7B685B685B00B1FBF3F37A
:10231C000133C3F30B0351E004234FE07B689B684C
:10232C00002B11D1FB68581E7B6859680B465B006B
:10233C000B44B0FBF3F30133C3F30B03002B0CBFC3
:10234C0001230023DBB212E0FB68581E7B6859683E
:10235C000B469B000B4499000B44B0FBF3F3013389
:10236C00C3F30B03002B0CBF01230023DBB2002BA8
:10237C0001D0012322E07B689B68002B0ED1FB6807
:10238C00581E7B6859680B465B000B44B0FBF3F39B
:10239C000133C3F30B0343F400430FE0FB68581EF7
:1023AC007B6859680B469B000B4499000B44B0FBAF
:1023BC00F3F30133C3F30B0343F440437968096827
:1023CC001343CB617B681B681B6823F0C0017B68DF
:1023DC00DA697B681B6A1A437B681B680A431A60BC
:1023EC007B681B689B6823F4034323F0FF037A6824
:1023FC0011697A68D26811437A6812680B4393604A
:10240C007B681B68DB6823F0FF017B685A697B687B
:10241C009B691A437B681B680A43DA607B681B68FC
:10242C001A687B681B6842F001021A607B68002204
:10243C001A647B68202283F83D207B6800221A6393
:10244C007B68002283F83E20002318461037BD46D7
:10245C0080BD00BFA08601007F841E00FF083D00E8
:10246C0083DE1B43D34D621080B588B002AFF86099
:10247C00084611461A4603467B810B463B811346A0
:10248C00FB80FFF723FB7861FB6893F83D30DBB2F0
:10249C00202B40F0D9807B690093192301226D49D0
:1024AC00F86800F0CDFC0346002B01D00223CCE0F1
:1024BC00FB6893F83C30012B01D10223C5E0FB688B
:1024CC00012283F83C20FB681B681B6803F00103A6
:1024DC00012B07D0FB681B681A68FB681B6842F06D
:1024EC0001021A60FB681B681A68FB681B6822F4FF
:1024FC0000621A60FB68212283F83D20FB684022B1
:10250C0083F83E20FB6800221A64FB683A6A5A6220
:10251C00FB68BA8C5A85FB685B8D9AB2FB681A858E
:10252C00FB684D4ADA62F8883A8979897B690193AC
:10253C00BB6A00930346F86800F004FB0346002BCB
:10254C0052D0012381E07A69B96AF86800F092FDF3
:10255C000346002B0DD0FB681B6C042B07D1FB68CA
:10256C001B681A68FB681B6842F400721A6001232E
:10257C006BE0FB685B6A1A78FB681B681A61FB6886
:10258C005B6A5A1CFB685A62FB681B8D013B9AB252
:10259C00FB681A85FB685B8D9BB2013B9AB2FB68AA
:1025AC005A85FB681B685B6903F00403042B1BD181
:1025BC00FB681B8D002B17D0FB685B6A1A78FB68D5
:1025CC001B681A61FB685B6A5A1CFB685A62FB68E1
:1025DC001B8D013B9AB2FB681A85FB685B8D9BB225
:1025EC00013B9AB2FB685A85FB681B8D002BAAD164
:1025FC007A69B96AF86800F085FD0346002B0DD0A6
:10260C00FB681B6C042B07D1FB681B681A68FB6802
:10261C001B6842F400721A60012316E0FB681B6809
:10262C001A68FB681B6842F400721A60FB6820226F
:10263C0083F83D20FB68002283F83E20FB680022D3
:10264C0083F83C20002300E0022318461837BD46CF
:10265C0080BD00BF020010000000FFFF80B58CB0F1
:10266C0002AFF860084611461A4603467B810B46BA
:10267C003B811346FB8000233B62FFF727FA78620D
:10268C00FB6893F83D30DBB2202B40F050827B6A24
:10269C000093192301228249F86800F0D1FB03460C
:1026AC00002B01D0022343E2FB6893F83C30012B52
:1026BC0001D102233CE2FB68012283F83C20FB6839
:1026CC001B681B6803F00103012B07D0FB681B6818
:1026DC001A68FB681B6842F001021A60FB681B68F1
:1026EC001A68FB681B6822F400621A60FB682222DD
:1026FC0083F83D20FB68402283F83E20FB680022D3
:10270C001A64FB683A6B5A62FB68BA8E5A85FB688E
:10271C005B8D9AB2FB681A85FB68624ADA62F888AC
:10272C003A8979897B6A0193BB6B00930346F868FD
:10273C0000F09EFA0346002B01D00123F8E1FB6860
:10274C001B8D002B13D10023FB61FB681B685B699D
:10275C00FB61FB681B689B69FB61FB69FB681B6881
:10276C001A68FB681B6842F400721A60CCE1FB68C3
:10277C001B8D012B1ED1FB681B681A68FB681B683C
:10278C0022F480621A6072B600BF0023BB61FB6842
:10279C001B685B69BB61FB681B689B69BB61BB69A0
:1027AC00FB681B681A68FB681B6842F400721A60AD
:1027BC0062B635E0FB681B8D022B1ED1FB681B68D3
:1027CC001A68FB681B6842F400621A6072B600BF9C
:1027DC0000237B61FB681B685B697B61FB681B6882
:1027EC009B697B617B69FB681B681A68FB681B68CB
:1027FC0022F480621A6062B612E0FB681B681A68E9
:10280C00FB681B6842F480621A6000233B61FB6822
:10281C001B685B693B61FB681B689B693B613B699F
:10282C0072E1FB681B8D032B00F21F81FB681B8D73
:10283C00012B23D17A6AB96BF86800F0ABFC034624
:10284C00002B01D0012373E1FB681B681A69FB683C
:10285C005B6AD2B21A70FB685B6A5A1CFB685A62DC
:10286C00FB681B8D013B9AB2FB681A85FB685B8D7C
:10287C009BB2013B9AB2FB685A8545E1FB681B8D04
:10288C00022B52D17B6A0093BB6B00220649F8687D
:10289C0000F0D6FA0346002B08D0012348E100BF14
:1028AC00020010000000FFFF0400010072B600BF20
:1028BC00FB681B681A68FB681B6842F400721A609C
:1028CC00FB681B681A69FB685B6AD2B21A70FB68FA
:1028DC005B6A5A1CFB685A62FB681B8D013B9AB2FF
:1028EC00FB681A85FB685B8D9BB2013B9AB2FB6857
:1028FC005A8562B600BFFB681B681A69FB685B6A85
:10290C00D2B21A70FB685B6A5A1CFB685A62FB688D
:10291C001B8D013B9AB2FB681A85FB685B8D9BB2E1
:10292C00013B9AB2FB685A85EEE07B6A0093BB6B65
:10293C0000228149F86800F083FA0346002B01D08D
:10294C000123F5E0FB681B681A68FB681B6822F41E
:10295C0080621A6072B600BFFB681B681A69FB685C
:10296C005B6AD2B21A70FB685B6A5A1CFB685A62CB
:10297C00FB681B8D013B9AB2FB681A85FB685B8D6B
:10298C009BB2013B9AB2FB685A856C4B1B68DB0807
:10299C006B4AA2FB03231A0A13469B001344DA006A
:1029AC00D31A3B623B6A013B3B623B6A002B18D15A
:1029BC00FB6800221A63FB68202283F83D20FB6829
:1029CC00002283F83E20FB681B6C43F02002FB685E
:1029DC001A6462B600BFFB68002283F83C20012316
:1029EC00A6E0FB681B685B6903F00403042BD9D1D8
:1029FC00FB681B681A68FB681B6842F400721A605B
:102A0C00FB681B681A69FB685B6AD2B21A70FB68B8
:102A1C005B6A5A1CFB685A62FB681B8D013B9AB2BD
:102A2C00FB681A85FB685B8D9BB2013B9AB2FB6815
:102A3C005A8562B600BFFB681B681A69FB685B6A43
:102A4C00D2B21A70FB685B6A5A1CFB685A62FB684C
:102A5C001B8D013B9AB2FB681A85FB685B8D9BB2A0
:102A6C00013B9AB2FB685A854EE07A6AB96BF868FA
:102A7C0000F090FB0346002B01D0012358E0FB68CB
:102A8C001B681A69FB685B6AD2B21A70FB685B6AD6
:102A9C005A1CFB685A62FB681B8D013B9AB2FB689F
:102AAC001A85FB685B8D9BB2013B9AB2FB685A8519
:102ABC00FB681B685B6903F00403042B24D1FB68DF
:102ACC001B8D032B07D1FB681B681A68FB681B68FE
:102ADC0022F480621A60FB681B681A69FB685B6AE7
:102AEC00D2B21A70FB685B6A5A1CFB685A62FB68AC
:102AFC001B8D013B9AB2FB681A85FB685B8D9BB200
:102B0C00013B9AB2FB685A85FB681B8D002B7FF446
:102B1C0088AEFB68202283F83D20FB68002283F8F6
:102B2C003E20FB68002283F83C20002300E00223B7
:102B3C0018462837BD4680BD040001000400002063
:102B4C0089B5F81480B588B002AFF8600846114614
:102B5C001A4603467B810B463B811346FB80FB6880
:102B6C001B681A68FB681B6842F480721A607B6AE7
:102B7C0000933B6A00224FF00111F86800F060F9F5
:102B8C000346002B0DD0FB681B681B6803F4807395
:102B9C00B3F5807F03D1FB684FF400721A640323F2
:102BAC005FE07B89DBB21A46FB681B6802F0FE0211
:102BBC001A617B6A3A6A2D49F86800F0BBF9034642
:102BCC00002B01D001234CE000237B61FB681B68C8
:102BDC005B697B61FB681B689B697B617B697A6ABB
:102BEC00396AF86800F046FA0346002B0DD0FB68F2
:102BFC001B6C042B07D1FB681B681A68FB681B68ED
:102C0C0042F400721A6001232BE0FB88012B05D1E2
:102C1C003B89DAB2FB681B681A6121E03B891B0A0D
:102C2C009BB2DAB2FB681B681A617A6A396AF86877
:102C3C0000F020FA0346002B0DD0FB681B6C042B14
:102C4C0007D1FB681B681A68FB681B6842F40072AA
:102C5C001A60012305E03B89DAB2FB681B681A6134
:102C6C00002318461837BD4680BD00BF0200010086
:102C7C0080B588B002AFF860084611461A46034684
:102C8C007B810B463B811346FB80FB681B681A68F3
:102C9C00FB681B6842F480621A60FB681B681A6848
:102CAC00FB681B6842F480721A607B6A00933B6A73
:102CBC0000224FF00111F86800F0C2F80346002B17
:102CCC000DD0FB681B681B6803F48073B3F5807F21
:102CDC0003D1FB684FF400721A640323AAE07B89CA
:102CEC00DBB21A46FB681B6802F0FE021A617B6AB3
:102CFC003A6A5249F86800F01DF90346002B01D0DE
:102D0C00012397E000237B61FB681B685B697B6197
:102D1C00FB681B689B697B617B697A6A396AF86816
:102D2C0000F0A8F90346002B0DD0FB681B6C042B9C
:102D3C0007D1FB681B681A68FB681B6842F40072B9
:102D4C001A60012376E0FB88012B05D13B89DAB2AE
:102D5C00FB681B681A6121E03B891B0A9BB2DAB243
:102D6C00FB681B681A617A6A396AF86800F082F9A4
:102D7C000346002B0DD0FB681B6C042B07D1FB68A2
:102D8C001B681A68FB681B6842F400721A60012306
:102D9C0050E03B89DAB2FB681B681A617A6A396ABF
:102DAC00F86800F067F90346002B0DD0FB681B6C2C
:102DBC00042B07D1FB681B681A68FB681B6842F47C
:102DCC0000721A60012335E0FB681B681A68FB6807
:102DDC001B6842F480721A607B6A00933B6A002283
:102DEC004FF00111F86800F02BF80346002B0DD0C2
:102DFC00FB681B681B6803F48073B3F5807F03D1F9
:102E0C00FB684FF400721A64032313E07B89DBB276
:102E1C0043F00103DAB2FB681B681A617B6A3A6AF9
:102E2C000649F86800F086F80346002B01D0012310
:102E3C0000E0002318461837BD4680BD0200010093
:102E4C0080B584B000AFF860B9603B601346FB718D
:102E5C0048E03B68B3F1FF3F44D0FEF737FE024633
:102E6C00BB69D31A3A689A4202D33B68002B39D11A
:102E7C00BB681B0CDBB2012B0DD1FB681B685B69BB
:102E8C00DA43BB6813409BB2002B0CBF0123002319
:102E9C00DBB21A460CE0FB681B689B69DA43BB6823
:102EAC0013409BB2002B0CBF01230023DBB21A464C
:102EBC00FB799A4216D1FB6800221A63FB68202228
:102ECC0083F83D20FB68002283F83E20FB681B6CD6
:102EDC0043F02002FB681A64FB68002283F83C2054
:102EEC00012323E0BB681B0CDBB2012B0DD1FB686B
:102EFC001B685B69DA43BB6813409BB2002B0CBFA9
:102F0C0001230023DBB21A460CE0FB681B689B69AB
:102F1C00DA43BB6813409BB2002B0CBF0123002388
:102F2C00DBB21A46FB799A4293D00023184610372D
:102F3C00BD4680BD80B584B000AFF860B9607A60E2
:102F4C003B6071E0FB681B685B6903F48063B3F55D
:102F5C00806F23D1FB681B681A68FB681B6842F4FE
:102F6C0000721A60FB681B686FF480625A61FB6820
:102F7C0000221A63FB68202283F83D20FB680022A4
:102F8C0083F83E20FB681B6C43F00402FB681A6458
:102F9C00FB68002283F83C20012367E07B68B3F1D7
:102FAC00FF3F41D0FEF792FD02463B68D31A7A6888
:102FBC009A4202D37B68002B36D1BB681B0CDBB268
:102FCC00012B0CD1FB681B685B69DA43BB681340AF
:102FDC009BB2002B14BF01230023DBB20BE0FB6878
:102FEC001B689B69DA43BB6813409BB2002B14BF70
:102FFC0001230023DBB2002B16D0FB6800221A63DE
:10300C00FB68202283F83D20FB68002283F83E20D9
:10301C00FB681B6C43F02002FB681A64FB680022FF
:10302C0083F83C20012321E0BB681B0CDBB2012B95
:10303C000CD1FB681B685B69DA43BB6813409BB21D
:10304C00002B14BF01230023DBB20BE0FB681B68D1
:10305C009B69DA43BB6813409BB2002B14BF01235E
:10306C000023DBB2002B7FF46DAF00231846103722
:10307C00BD4680BD80B584B000AFF860B9607A60A1
:10308C0034E0F86800F0E3F80346002B01D001238C
:10309C0034E0BB68B3F1FF3F28D0FEF717FD0246C2
:1030AC007B68D31ABA689A4202D3BB68002B1DD135
:1030BC00FB681B685B6903F08003802B16D0FB68F0
:1030CC0000221A63FB68202283F83D20FB68002253
:1030DC0083F83E20FB681B6C43F02002FB681A64EB
:1030EC00FB68002283F83C20012307E0FB681B6887
:1030FC005B6903F08003802BC3D100231846103783
:10310C00BD4680BD80B584B000AFF860B9607A6010
:10311C0034E0F86800F09BF80346002B01D0012343
:10312C0034E0BB68B3F1FF3F28D0FEF7CFFC02467A
:10313C007B68D31ABA689A4202D3BB68002B1DD1A4
:10314C00FB681B685B6903F00403042B16D0FB6857
:10315C0000221A63FB68202283F83D20FB680022C2
:10316C0083F83E20FB681B6C43F02002FB681A645A
:10317C00FB68002283F83C20012307E0FB681B68F6
:10318C005B6903F00403042BC3D1002318461037EA
:10319C00BD4680BD80B584B000AFF860B9607A6080
:1031AC0049E0FB681B685B6903F01003102B19D115
:1031BC00FB681B686FF010025A61FB6800221A63EF
:1031CC00FB68202283F83D20FB68002283F83E2018
:1031DC00FB681A6CFB681A64FB68002283F83C20BD
:1031EC00012330E0FEF772FC02467B68D31ABA6802
:1031FC009A4202D3BB68002B1DD1FB681B685B692C
:10320C0003F04003402B16D0FB6800221A63FB68C6
:10321C00202283F83D20FB68002283F83E20FB68C7
:10322C001B6C43F02002FB681A64FB68002283F8D5
:10323C003C20012307E0FB681B685B6903F040033B
:10324C00402BAED1002318461037BD4680BD80B44C
:10325C0083B000AF78607B681B685B6903F48063A4
:10326C00B3F5806F1BD17B681B686FF480625A6169
:10327C007B6800221A637B68202283F83D207B68E0
:10328C00002283F83E207B681B6C43F004027B68B1
:10329C001A647B68002283F83C20012300E00023A1
:1032AC0018460C37BD4680BC7047000080B586B010
:1032BC0000AF78607B68002B01D1012372E27B6840
:1032CC001B6803F00103002B00F08780924B5B68B6
:1032DC0003F00C03042B0CD08F4B5B6803F00C0336
:1032EC00082B12D18C4B5B6803F48033B3F5803F11
:1032FC000BD1894B1B6803F40033002B6CD07B681B
:10330C005B68002B68D101234CE27B685B68B3F5EA
:10331C00803F06D1804B1B687F4A43F48033136097
:10332C002EE07B685B68002B0CD17B4B1B687A4AC8
:10333C0023F480331360784B1B68774A23F4802383
:10334C0013601DE07B685B68B3F5A02F0CD1724B4A
:10335C001B68714A43F4802313606F4B1B686E4AE1
:10336C0043F4803313600BE06B4B1B686A4A23F405
:10337C0080331360684B1B68674A23F48023136007
:10338C007B685B68002B13D0FEF7A0FB386108E06C
:10339C00FEF79CFB02463B69D31A642B01D903232D
:1033AC0000E25D4B1B6803F40033002BF0D014E0FB
:1033BC00FEF78CFB386108E0FEF788FB02463B69A0
:1033CC00D31A642B01D90323ECE1534B1B6803F490
:1033DC000033002BF0D100E000BF7B681B6803F0CA
:1033EC000203002B63D04C4B5B6803F00C03002BE7
:1033FC000BD0494B5B6803F00C03082B1CD1464BDC
:10340C005B6803F48033002B16D1434B1B6803F02D
:10341C000203002B05D07B681B69012B01D0012313
:10342C00C0E13D4B1B6823F0F8027B685B69DB0055
:10343C00394913430B603AE07B681B69002B20D0A1
:10344C00364B01221A60FEF741FB386108E0FEF7AB
:10345C003DFB02463B69D31A022B01D90323A1E1A0
:10346C002D4B1B6803F00203002BF0D02A4B1B687A
:10347C0023F0F8027B685B69DB00274913430B6080
:10348C0015E0264B00221A60FEF720FB386108E09D
:10349C00FEF71CFB02463B69D31A022B01D903230E
:1034AC0080E11D4B1B6803F00203002BF0D17B68FD
:1034BC001B6803F00803002B3AD07B689B69002B38
:1034CC0019D0174B01221A60FEF700FB386108E097
:1034DC00FEF7FCFA02463B69D31A022B01D90323EF
:1034EC0060E10D4B5B6A03F00203002BF0D001206E
:1034FC0000F0CEFA1CE00A4B00221A60FEF7E6FA46
:10350C0038610FE0FEF7E2FA02463B69D31A022B50
:10351C0008D9032346E100BF0010024000004242DC
:10352C0080044242924B5B6A03F00203002BE9D108
:10353C007B681B6803F00403002B00F0A6800023BB
:10354C00FB758B4BDB6903F08053002B0DD1884B43
:10355C00DB69874A43F08053D361854BDB6903F009
:10356C008053BB60BB680123FB75824B1B6803F463
:10357C008073002B18D17F4B1B687E4A43F48073F9
:10358C001360FEF7A3FA386108E0FEF79FFA0246D3
:10359C003B69D31A642B01D9032303E1754B1B68D8
:1035AC0003F48073002BF0D07B68DB68012B06D111
:1035BC006F4B1B6A6E4A43F0010313622DE07B686C
:1035CC00DB68002B0CD16A4B1B6A694A23F00103A0
:1035DC001362674B1B6A664A23F0040313621CE0F8
:1035EC007B68DB68052B0CD1614B1B6A604A43F08E
:1035FC00040313625E4B1B6A5D4A43F001031362C2
:10360C000BE05B4B1B6A5A4A23F001031362584BC5
:10361C001B6A574A23F0040313627B68DB68002B98
:10362C0015D0FEF753FA38610AE0FEF74FFA02465E
:10363C003B69D31A41F28832934201D90323B1E09A
:10364C004B4B1B6A03F00203002BEED014E0FEF789
:10365C003DFA38610AE0FEF739FA02463B69D31AA3
:10366C0041F28832934201D903239BE0404B1B6A01
:10367C0003F00203002BEED1FB7D012B05D13C4B5B
:10368C00DB693B4A23F08053D3617B68DB69002BF9
:10369C0000F08780364B5B6803F00C03082B61D07D
:1036AC007B68DB69022B46D1334B00221A60FEF794
:1036BC000DFA386108E0FEF709FA02463B69D31AA5
:1036CC00022B01D903236DE0294B1B6803F0007317
:1036DC00002BF0D17B681B6AB3F5803F08D1244BDB
:1036EC005B6823F400327B689B68214913434B6071
:1036FC001F4B5B6823F474127B68196A7B685B6AE6
:10370C000B431B4913434B601B4B01221A60FEF702
:10371C00DDF9386108E0FEF7D9F902463B69D31AA6
:10372C00022B01D903233DE0114B1B6803F00073FE
:10373C00002BF0D035E0104B00221A60FEF7C6F9D2
:10374C00386108E0FEF7C2F902463B69D31A022B36
:10375C0001D9032326E0064B1B6803F00073002BF2
:10376C00F0D11EE07B68DB69012B07D1012319E046
:10377C000010024000700040600042420B4B5B683E
:10378C00FB60FB6803F480327B681B6A9A4206D1AB
:10379C00FB6803F470127B685B6A9A4201D00123C8
:1037AC0000E0002318461837BD4680BD00100240CB
:1037BC0080B584B000AF786039607B68002B01D194
:1037CC000123D0E06A4B1B6803F007033A689A4266
:1037DC0010D9674B1B6823F0070265493B681343FC
:1037EC000B60634B1B6803F007033A689A4201D0E5
:1037FC000123B8E07B681B6803F00203002B20D088
:10380C007B681B6803F00403002B05D0594B5B68E5
:10381C00584A43F4E06353607B681B6803F0080369
:10382C00002B05D0534B5B68524A43F460535360F2
:10383C00504B5B6823F0F0027B689B684D49134347
:10384C004B607B681B6803F00103002B40D07B6846
:10385C005B68012B07D1474B1B6803F40033002B2B
:10386C0015D101237FE07B685B68022B07D1414BAC
:10387C001B6803F00073002B09D1012373E03D4B4F
:10388C001B6803F00203002B01D101236BE0394BC1
:10389C005B6823F003027B685B68364913434B601B
:1038AC00FEF714F9F8600AE0FEF710F90246FB681F
:1038BC00D31A41F28832934201D9032353E02D4BA2
:1038CC005B6803F00C027B685B689B009A42EBD14F
:1038DC00274B1B6803F007033A689A4210D2244B1B
:1038EC001B6823F0070222493B6813430B60204BF3
:1038FC001B6803F007033A689A4201D0012332E0B7
:10390C007B681B6803F00403002B08D0194B5B6821
:10391C0023F4E0627B68DB68164913434B607B68D9
:10392C001B6803F00803002B09D0124B5B6823F4CF
:10393C0060527B681B69DB000E4913434B6000F03F
:10394C0021F802460B4B5B681B0903F00F030A4975
:10395C00CB5C22FA03F3094A1360094B1B68184627
:10396C00FEF772F8002318461037BD4680BD00BF25
:10397C0000200240001002400064000804000020F7
:10398C000800002080B487B000AF0023FB60002348
:10399C00BB6000237B6100237B6000233B611E4BDB
:1039AC005B68FB60FB6803F00C03042B02D0082B54
:1039BC0003D027E0194B3B6127E0FB689B0C03F01D
:1039CC000F03174AD35C7B60FB6803F48033002B36
:1039DC0010D0114B5B685B0C03F00103114AD35CF4
:1039EC00BB607B680D4A03FB02F2BB68B2FBF3F3CE
:1039FC007B6104E07B680C4A02FB03F37B617B690F
:103A0C003B6102E0054B3B6100BF3B6918461C372C
:103A1C00BD4680BC704700BF0010024000127A0007
:103A2C00186400082864000800093D0080B400AF49
:103A3C00024B1B681846BD4680BC70470400002032
:103A4C0080B500AFFFF7F2FF0246054B5B681B0A1F
:103A5C0003F007030349CB5C22FA03F3184680BD3D
:103A6C00001002401064000880B500AFFFF7DEFFC5
:103A7C000246054B5B68DB0A03F007030349CB5C8A
:103A8C0022FA03F3184680BD0010024010640008AF
:103A9C0080B485B000AF78600A4B1B680A4AA2FB61
:103AAC0003235B0A7A6802FB03F3FB6000BFFB682D
:103ABC005A1EFA60002BF9D100BF00BF1437BD4667
:103ACC0080BC704704000020D34D621080B582B0DA
:103ADC0000AF78607B68002B01D1012341E07B684B
:103AEC0093F83D30DBB2002B06D17B68002283F8C3
:103AFC003C207868FDF7F0FD7B68022283F83D20BE
:103B0C007B681A687B6804331946104600F0B2FAD9
:103B1C007B68012283F846207B68012283F83E20D3
:103B2C007B68012283F83F207B68012283F84020C8
:103B3C007B68012283F841207B68012283F84220B4
:103B4C007B68012283F843207B68012283F84420A0
:103B5C007B68012283F845207B68012283F83D2095
:103B6C00002318460837BD4680BD80B582B000AF33
:103B7C0078607B68002B01D1012341E07B6893F8CE
:103B8C003D30DBB2002B06D17B68002283F83C2051
:103B9C00786800F039F87B68022283F83D207B6856
:103BAC001A687B6804331946104600F063FA7B6888
:103BBC00012283F846207B68012283F83E207B6833
:103BCC00012283F83F207B68012283F840207B6828
:103BDC00012283F841207B68012283F842207B6814
:103BEC00012283F843207B68012283F844207B6800
:103BFC00012283F845207B68012283F83D200023B5
:103C0C0018460837BD4680BD80B483B000AF7860DD
:103C1C0000BF0C37BD4680BC7047000080B584B037
:103C2C0000AF786039603B68002B09D17B6893F852
:103C3C003E30DBB2012B14BF01230023DBB222E0A8
:103C4C003B68042B09D17B6893F83F30DBB2012B26
:103C5C0014BF01230023DBB215E03B68082B09D10C
:103C6C007B6893F84030DBB2012B14BF0123002397
:103C7C00DBB208E07B6893F84130DBB2012B14BF58
:103C8C0001230023DBB2002B01D001235EE03B6853
:103C9C00002B04D17B68022283F83E2013E03B68A2
:103CAC00042B04D17B68022283F83F200BE03B6895
:103CBC00082B04D17B68022283F8402003E07B6848
:103CCC00022283F841207B681B6801223968184660
:103CDC0000F05CFC7B681B681E4A934207D17B6832
:103CEC001B685A6C7B681B6842F400425A647B6800
:103CFC001B68184A93420ED07B681B68B3F1804F47
:103D0C0009D07B681B68144A934204D07B681B68FB
:103D1C00124A934211D17B681B689B6803F007031E
:103D2C00FB60FB68062B10D07B681B681A687B68ED
:103D3C001B6842F001021A6007E07B681B681A6876
:103D4C007B681B6842F001021A600023184610378A
:103D5C00BD4680BD002C014000040040000800401E
:103D6C0080B586B000AFF860B9607A600023FB754F
:103D7C00FB6893F83C30012B01D10223AEE0FB68C9
:103D8C00012283F83C207B680C2B00F29F8001A25F
:103D9C0052F823F0D53D0008D93E0008D93E000862
:103DAC00D93E0008153E0008D93E0008D93E00084F
:103DBC00D93E0008573E0008D93E0008D93E0008FD
:103DCC00D93E0008973E0008FB681B68B968184686
:103DDC0000F0BEF9FB681B689A69FB681B6842F02F
:103DEC0008029A61FB681B689A69FB681B6822F0E1
:103DFC0004029A61FB681B689969BB681A69FB68C5
:103E0C001B680A439A6164E0FB681B68B968184632
:103E1C0000F004FAFB681B689A69FB681B6842F4A3
:103E2C0000629A61FB681B689A69FB681B6822F444
:103E3C0080629A61FB681B689969BB681B691A02EE
:103E4C00FB681B680A439A6143E0FB681B68B9680E
:103E5C00184600F04DFAFB681B68DA69FB681B68B2
:103E6C0042F00802DA61FB681B68DA69FB681B68C0
:103E7C0022F00402DA61FB681B68D969BB681A6915
:103E8C00FB681B680A43DA6123E0FB681B68B968AE
:103E9C00184600F097FAFB681B68DA69FB681B6828
:103EAC0042F40062DA61FB681B68DA69FB681B6824
:103EBC0022F48062DA61FB681B68D969BB681B69F4
:103ECC001A02FB681B680A43DA6102E00123FB75E6
:103EDC0000BFFB68002283F83C20FB7D1846183796
:103EEC00BD4680BD80B584B000AF786039600023DA
:103EFC00FB737B6893F83C30012B01D10223B4E0B7
:103F0C007B68012283F83C207B68022283F83D20E9
:103F1C007B681B689B68BB60BB6823F07703BB6046
:103F2C00BB6823F47F43BB607B681B68BA689A60EC
:103F3C003B681B68B3F5005F3ED0B3F5005F00F241
:103F4C008780B3F5805F00F08680B3F5805F7FD803
:103F5C00702B1AD0702B7BD8602B50D0602B77D85D
:103F6C00502B3CD0502B73D8402B58D0402B6FD8B3
:103F7C00302B64D0302B6BD8202B60D0202B67D803
:103F8C00002B5CD0102B5AD062E07B6818683B6821
:103F9C0099683B685A683B68DB6800F0D8FA7B6824
:103FAC001B689B68BB60BB6843F07703BB607B6896
:103FBC001B68BA689A604FE07B6818683B68996820
:103FCC003B685A683B68DB6800F0C1FA7B681B6889
:103FDC009A687B681B6842F480429A603CE07B687C
:103FEC0018683B6859683B68DB681A4600F038FA79
:103FFC007B681B685021184600F08FFA2CE07B6818
:10400C0018683B6859683B68DB681A4600F056FA3A
:10401C007B681B686021184600F07FFA1CE07B6807
:10402C0018683B6859683B68DB681A4600F018FA58
:10403C007B681B684021184600F06FFA0CE07B6827
:10404C001A683B681B681946104600F066FA03E0D4
:10405C000123FB7300E000BF7B68012283F83D2045
:10406C007B68002283F83C20FB7B18461037BD464A
:10407C0080BD000080B485B000AF786039607B688B
:10408C001B68FB607B682F4A93420BD07B68B3F1B3
:10409C00804F07D07B682C4A934203D07B682B4A15
:1040AC00934208D1FB6823F07003FB603B685B68AC
:1040BC00FA681343FB607B68224A93420BD07B68FF
:1040CC00B3F1804F07D07B681F4A934203D07B68C3
:1040DC001E4A934208D1FB6823F44073FB603B6893
:1040EC00DB68FA681343FB60FB6823F080023B68D3
:1040FC005B691343FB607B68FA681A603B689A68DB
:10410C007B68DA623B681A687B689A627B680D4A46
:10411C00934203D13B681A697B681A637B6801225E
:10412C005A617B681B6903F00103002B05D07B6887
:10413C001B6923F001027B681A6100BF1437BD466E
:10414C0080BC7047002C0140000400400008004077
:10415C0080B487B000AF786039607B681B6A7B6184
:10416C007B681B6A23F001027B681A627B685B68C0
:10417C003B617B689B69FB60FB6823F07003FB6011
:10418C00FB6823F00303FB603B681B68FA6813436E
:10419C00FB607B6923F002037B613B689B687A6957
:1041AC0013437B617B681C4A93420CD17B6923F0DF
:1041BC0008037B613B68DB687A6913437B617B692D
:1041CC0023F004037B617B68134A934211D13B6952
:1041DC0023F480733B613B6923F400733B613B68C0
:1041EC005B693A6913433B613B689B693A691343CA
:1041FC003B617B683A695A607B68FA689A613B68F4
:10420C005A687B685A637B687A691A6200BF1C37EC
:10421C00BD4680BC704700BF002C014080B487B005
:10422C0000AF786039607B681B6A7B617B681B6AB6
:10423C0023F010027B681A627B685B683B617B68C9
:10424C009B69FB60FB6823F4E043FB60FB6823F491
:10425C004073FB603B681B681B02FA681343FB60EE
:10426C007B6923F020037B613B689B681B017A69A7
:10427C0013437B617B681D4A93420DD17B6923F00C
:10428C0080037B613B68DB681B017A6913437B61AC
:10429C007B6923F040037B617B68144A934213D102
:1042AC003B6923F480633B613B6923F400633B610E
:1042BC003B685B699B003A6913433B613B689B69B4
:1042CC009B003A6913433B617B683A695A607B688F
:1042DC00FA689A613B685A687B689A637B687A696A
:1042EC001A6200BF1C37BD4680BC7047002C0140D1
:1042FC0080B487B000AF786039607B681B6A7B61E3
:10430C007B681B6A23F480727B681A627B685B682B
:10431C003B617B68DB69FB60FB6823F07003FB602F
:10432C00FB6823F00303FB603B681B68FA681343CC
:10433C00FB607B6923F400737B613B689B681B0209
:10434C007A6913437B617B681D4A93420DD17B696B
:10435C0023F400637B613B68DB681B027A691343BF
:10436C007B617B6923F480637B617B68144A934295
:10437C0013D13B6923F480533B613B6923F4005315
:10438C003B613B685B691B013A6913433B613B68CA
:10439C009B691B013A6913433B617B683A695A601C
:1043AC007B68FA68DA613B685A687B68DA637B6819
:1043BC007A691A6200BF1C37BD4680BC704700BFCB
:1043CC00002C014080B487B000AF786039607B6806
:1043DC001B6A3B617B681B6A23F480527B681A6200
:1043EC007B685B687B617B68DB69FB60FB6823F443
:1043FC00E043FB60FB6823F44073FB603B681B6885
:10440C001B02FA681343FB603B6923F400533B61C6
:10441C003B689B681B033A6913433B617B680F4AFB
:10442C00934209D17B6923F480437B613B685B69D0
:10443C009B017A6913437B617B687A695A607B685C
:10444C00FA68DA613B685A687B681A647B683A6977
:10445C001A6200BF1C37BD4680BC7047002C01405F
:10446C0080B487B000AFF860B9607A60FB681B6AF3
:10447C007B61FB681B6A23F00102FB681A62FB6814
:10448C009B693B613B6923F0F0033B617B681B013B
:10449C003A6913433B617B6923F00A037B617A69B8
:1044AC00BB6813437B61FB683A699A61FB687A6964
:1044BC001A6200BF1C37BD4680BC704780B487B001
:1044CC0000AFF860B9607A60FB681B6A7B61FB68BF
:1044DC001B6A23F01002FB681A62FB689B693B6144
:1044EC003B6923F470433B617B681B033A691343BC
:1044FC003B617B6923F0A0037B61BB681B017A697C
:10450C0013437B61FB683A699A61FB687A691A62AA
:10451C0000BF1C37BD4680BC704780B485B000AF6F
:10452C00786039607B689B68FB60FB6823F07003E4
:10453C00FB603A68FB68134343F00703FB607B683E
:10454C00FA689A6000BF1437BD4680BC704780B4CF
:10455C0087B000AFF860B9607A603B60FB689B681D
:10456C007B617B6923F47F437B613B681A027B6828
:10457C001A43BB6813437A6913437B61FB687A69FE
:10458C009A6000BF1C37BD4680BC704780B487B0B2
:10459C0000AFF860B9607A60BB6803F01F030122BA
:1045AC0002FA03F37B61FB681A6A7B69DB431A40EE
:1045BC00FB681A62FB681A6ABB6803F01F03796810
:1045CC0001FA03F31A43FB681A6200BF1C37BD469D
:1045DC0080BC704780B485B000AF786039607B6870
:1045EC0093F83C30012B01D1022346E07B68012279
:1045FC0083F83C207B68022283F83D207B681B6893
:10460C005B68FB607B681B689B68BB60FB6823F086
:10461C007003FB603B681B68FA681343FB607B68A4
:10462C001B68FA685A607B681B68164A93420ED066
:10463C007B681B68B3F1804F09D07B681B68124AFA
:10464C00934204D07B681B68104A93420CD1BB6820
:10465C0023F08003BB603B685B68BA681343BB60A4
:10466C007B681B68BA689A607B68012283F83D20DE
:10467C007B68002283F83C20002318461437BD4683
:10468C0080BC7047002C0140000400400008004032
:10469C0080B582B000AF78607B68002B01D101231C
:1046AC0042E07B6893F84130DBB2002B06D17B688B
:1046BC00002283F840207868FDF75AF87B682422A2
:1046CC0083F841207B681B68DA687B681B6822F4DE
:1046DC000052DA60786800F0D5FC7B681B681A69B8
:1046EC007B681B6822F490421A617B681B685A69CC
:1046FC007B681B6822F02A025A617B681B68DA68A7
:10470C007B681B6842F40052DA607B6800225A64B2
:10471C007B68202283F841207B68202283F842208A
:10472C007B6800225A63002318460837BD4680BDBB
:10473C0080B584B000AFF860B9601346FB80FB68AD
:10474C0093F84230DBB2202B12D1BB68002B02D085
:10475C00FB88002B01D101230BE0FB6800221A63BC
:10476C00FB881A46B968F86800F0B7FA034600E00F
:10477C00022318461037BD4680BD000080B5BAB084
:10478C0000AF78607B681B681B68C7F8E4307B68F7
:10479C001B68DB68C7F8E0307B681B685B69C7F88F
:1047AC00DC300023C7F8D8300023C7F8D430D7F852
:1047BC00E43003F00F03C7F8D830D7F8D830002B0B
:1047CC000FD1D7F8E43003F02003002B09D0D7F831
:1047DC00E03003F02003002B03D0786800F093FB4B
:1047EC005BE2D7F8D830002B00F0DE80D7F8DC3055
:1047FC0003F00103002B06D1D7F8E03003F49073DB
:10480C00002B00F0D180D7F8E43003F00103002B2B
:10481C000BD0D7F8E03003F48073002B05D07B6805
:10482C005B6C43F001027B685A64D7F8E43003F008
:10483C000403002B0BD0D7F8DC3003F00103002B62
:10484C0005D07B685B6C43F002027B685A64D7F836
:10485C00E43003F00203002B0BD0D7F8DC3003F06C
:10486C000103002B05D07B685B6C43F004027B6872
:10487C005A64D7F8E43003F00803002B11D0D7F8B2
:10488C00E03003F02003002B05D1D7F8DC3003F027
:10489C000103002B05D07B685B6C43F008027B683E
:1048AC005A647B685B6C002B00F0F281D7F8E43023
:1048BC0003F02003002B08D0D7F8E03003F02003DE
:1048CC00002B02D0786800F01EFB7B681B685B69CC
:1048DC0003F04003002B14BF01230023DBB2C7F805
:1048EC00D4307B685B6C03F00803002B03D1D7F842
:1048FC00D430002B4FD0786800F028FA7B681B6806
:10490C005B6903F04003002B41D07B681B681433B8
:10491C00C7F89C30D7F89C3053E8003FC7F8983064
:10492C00D7F8983023F04003C7F8D0307B681B6869
:10493C001433D7F8D020C7F8A820C7F8A430D7F87C
:10494C00A410D7F8A82041E80023C7F8A030D7F866
:10495C00A030002BD9D17B68DB6B002B13D07B688C
:10496C00DB6B7E4A5A637B68DB6B1846FDF724FAD7
:10497C000346002B16D07B68DB6B5B6B7A68D26BC3
:10498C00104698470EE0786800F093F90AE07868D2
:10499C0000F08FF906E0786800F08BF97B68002254
:1049AC005A6475E100BF73E17B681B6B012B40F00F
:1049BC004F81D7F8E43003F01003002B00F048814E
:1049CC00D7F8E03003F01003002B00F041810023F6
:1049DC00BB607B681B681B68BB607B681B685B6883
:1049EC00BB60BB687B681B685B6903F04003002BF2
:1049FC0000F0B6807B68DB6B1B685B68A7F8BE3089
:104A0C00B7F8BE30002B00F045817B689B8DB7F862
:104A1C00BE209A4280F03E817B68B7F8BE20DA85D2
:104A2C007B68DB6B9B69202B00F088807B681B68A4
:104A3C000C33C7F88830D7F8883053E8003FC7F8F4
:104A4C008430D7F8843023F48073C7F8B8307B688F
:104A5C001B680C33D7F8B820C7F89420C7F89030EF
:104A6C00D7F89010D7F8942041E80023C7F88C3081
:104A7C00D7F88C30002BD9D17B681B6814337B673B
:104A8C007B6F53E8003F3B673B6F23F00103C7F894
:104A9C00B4307B681B681433D7F8B420C7F8802077
:104AAC00FB67F96FD7F8802041E80023BB67BB6F29
:104ABC00002BE1D17B681B6814333B663B6E53E8DB
:104ACC00003FFB65FB6D23F04003C7F8B0307B68FB
:104ADC001B681433D7F8B020FA66BB66B96EFA6E51
:104AEC0041E800237B667B6E002BE3D17B682022A0
:104AFC0083F842207B6800221A637B681B680C33A6
:104B0C00FB64FB6C53E8003FBB64BB6C23F01003ED
:104B1C00C7F8AC307B681B680C33D7F8AC20BA658F
:104B2C007B65796DBA6D41E800233B653B6D002BCD
:104B3C00E3D17B68DB6B1846FDF703F97B68022237
:104B4C005A637B689A8D7B68DB8D9BB2D31A9BB2C0
:104B5C001946786800F0B6F89CE000BF1D4E0008BE
:104B6C007B689A8D7B68DB8D9BB2D31AA7F8CE300D
:104B7C007B68DB8D9BB2002B00F08E80B7F8CE30BB
:104B8C00002B00F089807B681B680C33BB63BB6B0C
:104B9C0053E8003F7B637B6B23F49073C7F8C830FA
:104BAC007B681B680C33D7F8C8207A643B64396C7B
:104BBC007A6C41E80023FB63FB6B002BE3D17B6831
:104BCC001B6814337B627B6A53E8003F3B623B6A91
:104BDC0023F00103C7F8C4307B681B681433D7F883
:104BEC00C4203A63FB62F96A3A6B41E80023BB626A
:104BFC00BB6A002BE3D17B68202283F842207B68C0
:104C0C0000221A637B681B680C333B613B6953E8D9
:104C1C00003FFB60FB6823F01003C7F8C0307B68D3
:104C2C001B680C33D7F8C020FA61BB61B969FA690B
:104C3C0041E800237B617B69002BE3D17B68022276
:104C4C005A63B7F8CE301946786800F03BF823E089
:104C5C00D7F8E43003F08003002B09D0D7F8E0300C
:104C6C0003F08003002B03D0786800F0E5F814E023
:104C7C00D7F8E43003F04003002B0ED0D7F8E03027
:104C8C0003F04003002B08D0786800F024F904E00E
:104C9C0000BF02E000BF00E000BFE837BD4680BDAA
:104CAC0080B483B000AF786000BF0C37BD4680BCC9
:104CBC00704780B483B000AF786000BF0C37BD463E
:104CCC0080BC704780B483B000AF78600B467B80AB
:104CDC0000BF0C37BD4680BC704780B485B000AFB8
:104CEC00F860B9601346FB80FB68BA689A62FB688F
:104CFC00FA889A85FB68FA88DA85FB6800225A6480
:104D0C00FB68222283F84220FB681B69002B07D02A
:104D1C00FB681B68DA68FB681B6842F48072DA6017
:104D2C00FB681B685A69FB681B6842F001025A61F8
:104D3C00FB681B68DA68FB681B6842F02002DA60CB
:104D4C00002318461437BD4680BC704780B495B01C
:104D5C0000AF78607B681B680C337B637B6B53E81C
:104D6C00003F3B633B6B23F49073FB647B681B68D5
:104D7C000C33FA6C3A64FB63F96B3A6C41E8002330
:104D8C00BB63BB6B002BE5D17B681B6814333B62A8
:104D9C003B6A53E8003FFB61FB6923F00103BB64F2
:104DAC007B681B681433BA6CFA62BB62B96AFA6A24
:104DBC0041E800237B627B6A002BE5D17B681B6B8F
:104DCC00012B19D17B681B680C33FB60FB6853E823
:104DDC00003FBB60BB6823F010037B647B681B68DF
:104DEC000C337A6CBA617B617969BA6941E800234A
:104DFC003B613B69002BE5D17B68202283F8422084
:104E0C007B6800221A6300BF5437BD4680BC7047D4
:104E1C0080B584B000AF78607B685B6AFB60FB6830
:104E2C000022DA85FB680022DA84F868FFF741FF7C
:104E3C0000BF1037BD4680BD80B485B000AF786030
:104E4C007B6893F84130DBB2212B3ED17B689B68A9
:104E5C00B3F5805F14D17B681B69002B10D17B6884
:104E6C001B6AFB60FB681B881A467B681B68C2F3D5
:104E7C0008025A607B681B6A9A1C7B681A6208E0FD
:104E8C007B681B6A591C7A6811621A787B681B68EC
:104E9C005A607B68DB8C9BB2013B9BB27A681946EB
:104EAC00D184002B0FD17B681B68DA687B681B6888
:104EBC0022F08002DA607B681B68DA687B681B680A
:104ECC0042F04002DA60002300E002231846143757
:104EDC00BD4680BC704780B582B000AF78607B68FF
:104EEC001B68DA687B681B6822F04002DA607B681A
:104EFC00202283F841207868FFF7D2FE0023184661
:104F0C000837BD4680BD80B58CB000AF78607B683B
:104F1C0093F84230DBB2222B40F0AE807B689B686A
:104F2C00B3F5805F17D17B681B69002B13D100236D
:104F3C00FB627B689B6ABB627B681B685B689BB28D
:104F4C00C3F308039AB2BB6A1A807B689B6A9A1CEB
:104F5C007B689A6226E07B689B6AFB620023BB62DB
:104F6C007B689B68B3F5805F07D07B689B68002BE0
:104F7C000AD17B681B69002B06D17B681B685B68B8
:104F8C00DAB2FB6A1A7008E07B681B685B68DBB2FC
:104F9C0003F07F03DAB2FB6A1A707B689B6A5A1CB7
:104FAC007B689A627B68DB8D9BB2013B9BB27A6813
:104FBC001946D185002B5DD17B681B68DA687B684C
:104FCC001B6822F02002DA607B681B68DA687B6859
:104FDC001B6822F48072DA607B681B685A697B68F4
:104FEC001B6822F001025A617B68202283F8422060
:104FFC007B6800225A637B681B6B012B35D17B6865
:10500C0000221A637B681B680C337B617B6953E855
:10501C00003F3B613B6923F010037B627B681B689C
:10502C000C337A6A3A62FB61F9693A6A41E8002307
:10503C00BB61BB69002BE5D17B681B681B6803F067
:10504C001003102B0AD10023FB607B681B681B68C4
:10505C00FB607B681B685B68FB60FB687B689B8DF7
:10506C0019467868FFF72EFE02E07868FBF7B0FC73
:10507C00002302E0002300E0022318463037BD462F
:10508C0080BD000080B584B000AF78607B681B6881
:10509C001B6923F440517B68DA687B681B680A4300
:1050AC001A617B689A687B681B691A437B685B6929
:1050BC001343BB607B681B68DB6823F4B05323F09D
:1050CC000C037A681268B9680B43D3607B681B6861
:1050DC005B6923F440717B689A697B681B680A439F
:1050EC005A617B681B682C4A934203D1FEF7BCFCC7
:1050FC00F86002E0FEF7A4FCF860FA6813469B0027
:10510C0013449A001A447B685B689B00B2FBF3F370
:10511C00224AA2FB03235B091901FA6813469B0080
:10512C0013449A001A447B685B689B00B2FBF3F251
:10513C001A4BA3FB02035B09642000FB03F3D31A95
:10514C001B013233154AA2FB03235B0903F0F00366
:10515C001944FA6813469B0013449A001A447B685E
:10516C005B689B00B2FBF3F20C4BA3FB02035B09E5
:10517C00642000FB03F3D31A1B013233074AA2FB52
:10518C0003235B0903F00F027B681B680A449A60D7
:10519C0000BF1037BD4680BD003801401F85EB5164
:1051AC00002310B50446C0E90033C0E90433836022
:1051BC0081814366C2818361194608225C3000F00C
:1051CC0006F90D4B246263620C4BA3620C4BE36239
:1051DC000C4B23630C4B9C4206D003F168029442A7
:1051EC0002D0D0339C4205D104F15800BDE81040E8
:1051FC0000F066B910BD00BF555300087753000886
:10520C00AF530008D3530008C8010020024A0349D9
:10521C00034800F069B800BF10000020615D000871
:10522C002000002041680C4B10B59942044601D077
:10523C0000F090FDA168094B994202D0204600F085
:10524C0089FDE168064B994204D02046BDE8104028
:10525C0000F080BD10BD00BFC8010020300200204E
:10526C009802002010B50B4B0B4C0C4A20461A60D0
:10527C0004210022FFF794FF04F1680001220921A8
:10528C00FFF78EFF04F1D0000222BDE8104012217E
:10529C00FFF786BF00030020C80100201952000848
:1052AC00014800F00EB900BF09030020014800F0CE
:1052BC0009B900BF0903002010B50446FFF7F0FF41
:1052CC00236A1BB1BDE81040FFF7F0BF044B23620B
:1052DC00044B1B68002BF5D1FFF7C4FFF2E700BFAE
:1052EC0031520008000300202DE9F8430746884698
:1052FC0014460026D4E90195B9F1010905D52468B5
:10530C00002CF7D13046BDE8F883AB89012B07D9C7
:10531C00B5F90E30013303D029463846C047064351
:10532C006835E9E70FB407B5064904AB086853F8CC
:10533C00042B8168019300F0E5F903B05DF804EBF0
:10534C0004B070471C00002010B50C46B1F90E10CB
:10535C0000F068F80028ABBF636DA3891B1823F419
:10536C008053ACBF6365A38110BD2DE9F0411F468E
:10537C008B890546DB050C46164605D50223002213
:10538C00B1F90E1000F03CF8A389324623F4805397
:10539C00A38128463B46B4F90E10BDE8F04100F05D
:1053AC0053B810B50C46B1F90E1000F029F8431C97
:1053BC00A38915BF606523F4805343F48053A38104
:1053CC0018BFA38110BDB1F90E1000F009B8034647
:1053DC000244934200D1704703F8011BF9E7000027
:1053EC0038B50023054D044608462B60FCF783FABC
:1053FC00431C02D12B6803B1236038BD0403002089
:10540C0038B50446084611460022054D2A601A4656
:10541C00FCF795FA431C02D12B6803B1236038BD0D
:10542C000403002038B50446084611460022054DF9
:10543C002A601A46FCF726FA431C02D12B6803B1EA
:10544C00236038BD0403002038B5044608461146D5
:10545C000022054D2A601A46FCF731FA431C02D192
:10546C002B6803B1236038BD04030020014B18687E
:10547C00704700BF1C00002070B500260C4D0D4C71
:10548C00641BA410A64209D100F0A0FF00260A4D0F
:10549C000A4C641BA410A64205D170BD55F8043B00
:1054AC0098470136EEE755F8043B98470136F2E78A
:1054BC009864000898640008986400089C640008CC
:1054CC00704770477047000038B50546002940D03A
:1054DC0051F8043C0C1F002BB8BFE41800F0DEF8A8
:1054EC001C4A136833B9636014602846BDE8384021
:1054FC0000F0DAB8A34208D9206821188B4201BF0A
:10550C0019685B6809182160EDE71A465B680BB1F6
:10551C00A342FAD911685018A0420BD1206801445B
:10552C00501883421160E0D118685B680844106021
:10553C005360DAE702D90C232B60D6E720682118D8
:10554C008B4201BF19685B68091821606360546065
:10555C00CBE738BD1003002070B50F4E0C463168F8
:10556C00054611B900F0B2FC30602146284600F027
:10557C00ADFC431C03D14FF0FF34204670BDC41C5E
:10558C0024F00304A042F8D0211A284600F09EFC17
:10559C000130F2D1EFE700BF0C0300202DE9F843F6
:1055AC00CD1C25F0030508350C2D38BF0C25002D1E
:1055BC00064601DBA94204D90C2333600020BDE868
:1055CC00F883DFF8D48000F069F8D8F800301C4676
:1055DC0044BB29463046FFF7BFFF431C044658D155
:1055EC00D8F800402746002F43D1002C4BD023681D
:1055FC003946304604EB030900F068FC814542D182
:10560C00216830466D1A2946FFF7A6FF01303AD0C3
:10561C0023682B442360D8F800305A6862BBC8F862
:10562C0000700FE02268521B20D40B2A17D9611985
:10563C00A342256018BF5960636808BFC8F8001002
:10564C0062514B60304600F02FF804F10B00231D23
:10565C0020F00700C21A1CBF1B1AA350AFE76268E8
:10566C00A3420CBFC8F800205A60EBE723466468DD
:10567C00AEE73C467F68B6E71A465B68A342FBD1AF
:10568C0000235360DEE70C233046336000F00CF847
:10569C0094E70560D6E700BF100300200148FFF730
:1056AC0010BF00BF080300200148FFF70BBF00BF6D
:1056BC0008030020936810B4013B002B936007DAB9
:1056CC009469A34201DB0A2902D110BC00F06ABB29
:1056DC001368581C10601970084610BC7047F8B558
:1056EC0006460F461446D518AC4201D1002007E0FF
:1056FC003A46304614F8011BFFF7DCFF431CF3D18C
:10570C00F8BD00002DE9F04F0D46144698460646AC
:10571C009DB018B1036A0BB9FFF7CEFD6B6ED907BC
:10572C0005D4AB899A0502D4A86DFFF7CAFEAB89E4
:10573C001B0701D52B699BB92946304600F070FB3D
:10574C0070B16B6EDC0704D54FF0FF301DB0BDE8B7
:10575C00F08FAB899805F7D4A86DFFF7B3FEF3E78C
:10576C000023099320238DF8293030234FF00109B1
:10577C00CDF80C80DFF8A8818DF82A3023469A46A4
:10578C0013F8012B0AB1252AF9D1BAEB040B0BD073
:10579C005B46224629463046FFF7A1FF013000F058
:1057AC00A780099A5A4409929AF80030002B00F00D
:1057BC009F8000234FF0FF32CDE905230AF1010A47
:1057CC00049307938DF853301A935446052214F81A
:1057DC00011B534800F08AFB049AD8B9D10644BF88
:1057EC0020238DF85330130744BF2B238DF85330EF
:1057FC009AF800302A2B15D0544600204FF00A0C92
:10580C00079A214611F8013B303B092B4BD9B0B11B
:10581C00079214E0A0EB080309FA03F31343A24622
:10582C000493D2E7039B191D1B680391002BBBBF8C
:10583C005B4242F0020207930793B8BF04922378AD
:10584C002E2B0AD163782A2B32D1039B02341A1DDA
:10585C001B68039243EAE3730593DFF8C8A00322A5
:10586C005046217800F042FB38B14022049BA0EB5B
:10587C000A00824013430134049314F8011B0622DE
:10588C0029488DF8281000F031FB00283FD0274B19
:10589C001BBB039B073323F0070308330393099BBC
:1058AC003B4409936AE70C4601200CFB0232A8E743
:1058BC0000234FF00A0C194601340593204610F8CA
:1058CC00012B303A092A03D9002BC6D00591C4E725
:1058DC00044601230CFB0121F0E703AB00932A469D
:1058EC003046134B04A9AFF300800746781CD6D181
:1058FC006B6ED90705D4AB899A0502D4A86DFFF756
:10590C00E1FDAB895B063FF51FAF09981EE703ABC2
:10591C0000932A463046064B04A900F07DF8E4E7D4
:10592C002A64000830640008346400080000000099
:10593C00EB5600082DE9F047164698468A680B6925
:10594C0007469342B8BF1346336091F843200C4688
:10595C00DDF820900AB1013333602368990642BF09
:10596C00336802333360256815F0060506D104F15F
:10597C00190AE36832689B1AAB422BDC94F843306B
:10598C002268003B18BF0123920630D441463846AA
:10599C0004F14302C847013023D02368226903F085
:1059AC000603042B14BF002533684FF0000608BF14
:1059BC00E56804F11A0408BFED1A54F8123C08BF4C
:1059CC0025EAE5759342C4BF9B1AED18B5421AD16E
:1059DC00002008E00123524641463846C8470130B2
:1059EC0003D14FF0FF30BDE8F0870135C1E730201F
:1059FC00E11881F843005A1C94F8451022440233F4
:105A0C0082F84310C2E70123224641463846C84774
:105A1C000130E6D00136D9E72DE9FF470F7E9146DC
:105A2C00782F80460C469A460C9E01F1430207D80B
:105A3C00622F0AD8002F00F0D180582F00F0B880C8
:105A4C0004F1420684F842703AE0A7F16303152B87
:105A5C00F6D801A151F823F0BD5A0008D15A00081C
:105A6C004D5A00084D5A00084D5A00084D5A00086E
:105A7C00D15A00084D5A00084D5A00084D5A0008DA
:105A8C004D5A0008CF5B0008FB5A0008895B0008E0
:105A9C004D5A00084D5A0008F15B00084D5A000899
:105AAC00FB5A00084D5A00084D5A0008915B00083B
:105ABC0033681A1D1B68326004F1420684F84230C8
:105ACC0001239CE033682068191D3160060601D55E
